{
  "transactions": [
    {
      "hash": "0xf55795f9f7fd5e5c4a4b9006ea122eb90d85c60a3a8885e3db08313b21797d67",
      "transactionType": "CALL",
      "contractName": null,
      "contractAddress": "0xd032112434295a340e5de9fe04d28b932e8b57da",
      "function": "mint((string,bytes32)[],address)",
      "arguments": [
        "[(script, 0x0000000000000000000000000000000000000000000000000000000000000000)]",
        "0x1804c8AB1F12E6bbf3894d4083f33e07309d1f38"
      ],
      "transaction": {
        "from": "0x200f3eed8995472ad495ef8c1cfe74cc2eff7414",
        "to": "0xd032112434295a340e5de9fe04d28b932e8b57da",
        "gas": "0x36465",
        "value": "0x0",
        "input": "0xa3acac1700000000000000000000000000000000000000000000000000000000000000400000000000000000000000001804c8ab1f12e6bbf3894d4083f33e07309d1f38000000000000000000000000000000000000000000000000000000000000000100000000000000000000000000000000000000000000000000000000000000200000000000000000000000000000000000000000000000000000000000000040000000000000000000000000000000000000000000000000000000000000000000000000000000000000000000000000000000000000000000000000000000067363726970740000000000000000000000000000000000000000000000000000",
        "nonce": "0xc",
        "chainId": "0x40da"
      },
      "additionalContracts": [],
      "isFixedGasLimit": false
    }
  ],
  "receipts": [
    {
      "status": "0x1",
      "cumulativeGasUsed": "0x2b6b7",
      "logs": [
        {
          "address": "0xd032112434295a340e5de9fe04d28b932e8b57da",
          "topics": [
            "0xddf252ad1be2c89b69c2b068fc378daa952ba7f163c4a11628f55a4df523b3ef",
            "0x0000000000000000000000000000000000000000000000000000000000000000",
            "0x0000000000000000000000001804c8ab1f12e6bbf3894d4083f33e07309d1f38",
            "0x0000000000000000000000000000000000000000000000000000000000000000"
          ],
          "data": "0x",
          "blockHash": "0x53e27eb10e7b33c605a30f4d673e4e6a2d78e98b4f9adf449b0ea51796c349dc",
          "blockNumber": "0x1c1ff76",
          "transactionHash": "0xf55795f9f7fd5e5c4a4b9006ea122eb90d85c60a3a8885e3db08313b21797d67",
          "transactionIndex": "0x0",
          "logIndex": "0x0",
          "removed": false
        },
        {
          "address": "0xd032112434295a340e5de9fe04d28b932e8b57da",
          "topics": [
            "0x0950ea0f010b000d7cfc9ef49213d3385d8512dd80de45ce2fbf8fc123c4f9a4",
            "0x0000000000000000000000000000000000000000000000000000000000000000"
          ],
          "data": "0x000000000000000000000000000000000000000000000000000000000000004000000000000000000000000000000000000000000000000000000000000000600000000000000000000000000000000000000000000000000000000000000000000000000000000000000000000000000000000000000000000000000000000100000000000000000000000000000000000000000000000000000000000000200000000000000000000000000000000000000000000000000000000000000040000000000000000000000000000000000000000000000000000000000000000000000000000000000000000000000000000000000000000000000000000000067363726970740000000000000000000000000000000000000000000000000000",
          "blockHash": "0x53e27eb10e7b33c605a30f4d673e4e6a2d78e98b4f9adf449b0ea51796c349dc",
          "blockNumber": "0x1c1ff76",
          "transactionHash": "0xf55795f9f7fd5e5c4a4b9006ea122eb90d85c60a3a8885e3db08313b21797d67",
          "transactionIndex": "0x0",
          "logIndex": "0x1",
          "removed": false
        }
      ],
      "logsBloom": "0x00000000000000200000400000000000000000000000000000000000000000000000000000000000000000000000000000000000000000000000000000000000000000000000000000000008000000000000000000000000000000000000000000000000020000000001000000000800000000000000002000000010000000000008000000000000000004000000000000000000000000000000000400000000000000000000200000000000000000000000000000000000000000000000000000000002000004000000000000000000000000000000000000000000000020000000000000000000000000000000000000000000000000000000000000000000",
      "type": "0x2",
      "transactionHash": "0xf55795f9f7fd5e5c4a4b9006ea122eb90d85c60a3a8885e3db08313b21797d67",
      "transactionIndex": "0x0",
      "blockHash": "0x53e27eb10e7b33c605a30f4d673e4e6a2d78e98b4f9adf449b0ea51796c349dc",
      "blockNumber": "0x1c1ff76",
      "gasUsed": "0x2b6b7",
      "effectiveGasPrice": "0x77359407",
      "from": "0x200f3eed8995472ad495ef8c1cfe74cc2eff7414",
      "to": "0xd032112434295a340e5de9fe04d28b932e8b57da",
      "contractAddress": null
    }
  ],
  "libraries": [],
  "pending": [],
  "returns": {},
  "timestamp": 1777015627432,
  "chain": 16602,
  "commit": "6d24f88"
}