{
  "transactions": [
    {
      "hash": "0xe318a8d4a2cb9e75802c7a184e1fe2894027e84b746027ecf5caa38051eac2fe",
      "transactionType": "CALL",
      "contractName": null,
      "contractAddress": "0xd032112434295a340e5de9fe04d28b932e8b57da",
      "function": "mint((string,bytes32)[],address)",
      "arguments": [
        "[(script, 0x0000000000000000000000000000000000000000000000000000000000000000)]",
        "0x200F3eed8995472AD495EF8c1CfE74CC2EFF7414"
      ],
      "transaction": {
        "from": "0x200f3eed8995472ad495ef8c1cfe74cc2eff7414",
        "to": "0xd032112434295a340e5de9fe04d28b932e8b57da",
        "gas": "0x2faa4",
        "value": "0x0",
        "input": "0xa3acac170000000000000000000000000000000000000000000000000000000000000040000000000000000000000000200f3eed8995472ad495ef8c1cfe74cc2eff7414000000000000000000000000000000000000000000000000000000000000000100000000000000000000000000000000000000000000000000000000000000200000000000000000000000000000000000000000000000000000000000000040000000000000000000000000000000000000000000000000000000000000000000000000000000000000000000000000000000000000000000000000000000067363726970740000000000000000000000000000000000000000000000000000",
        "nonce": "0xd",
        "chainId": "0x40da"
      },
      "additionalContracts": [],
      "isFixedGasLimit": false
    }
  ],
  "receipts": [
    {
      "status": "0x1",
      "cumulativeGasUsed": "0x2621c",
      "logs": [
        {
          "address": "0xd032112434295a340e5de9fe04d28b932e8b57da",
          "topics": [
            "0xddf252ad1be2c89b69c2b068fc378daa952ba7f163c4a11628f55a4df523b3ef",
            "0x0000000000000000000000000000000000000000000000000000000000000000",
            "0x000000000000000000000000200f3eed8995472ad495ef8c1cfe74cc2eff7414",
            "0x0000000000000000000000000000000000000000000000000000000000000001"
          ],
          "data": "0x",
          "blockHash": "0x9c5dbe9170576761d5597a5ca6e0684cdd0c5a2b03129e5ed67c9a327088f6e4",
          "blockNumber": "0x1c208e1",
          "transactionHash": "0xe318a8d4a2cb9e75802c7a184e1fe2894027e84b746027ecf5caa38051eac2fe",
          "transactionIndex": "0x0",
          "logIndex": "0x0",
          "removed": false
        },
        {
          "address": "0xd032112434295a340e5de9fe04d28b932e8b57da",
          "topics": [
            "0x0950ea0f010b000d7cfc9ef49213d3385d8512dd80de45ce2fbf8fc123c4f9a4",
            "0x0000000000000000000000000000000000000000000000000000000000000001"
          ],
          "data": "0x000000000000000000000000000000000000000000000000000000000000004000000000000000000000000000000000000000000000000000000000000000600000000000000000000000000000000000000000000000000000000000000000000000000000000000000000000000000000000000000000000000000000000100000000000000000000000000000000000000000000000000000000000000200000000000000000000000000000000000000000000000000000000000000040000000000000000000000000000000000000000000000000000000000000000000000000000000000000000000000000000000000000000000000000000000067363726970740000000000000000000000000000000000000000000000000000",
          "blockHash": "0x9c5dbe9170576761d5597a5ca6e0684cdd0c5a2b03129e5ed67c9a327088f6e4",
          "blockNumber": "0x1c208e1",
          "transactionHash": "0xe318a8d4a2cb9e75802c7a184e1fe2894027e84b746027ecf5caa38051eac2fe",
          "transactionIndex": "0x0",
          "logIndex": "0x1",
          "removed": false
        }
      ],
      "logsBloom": "0x00000000000000300000400000000000000000000000000000000000000000000000000000000000000000000000000000000000000000000000000000040000000000000000000000000008000000000100000000040000000000000000000000000000020000000000000000000800000000000000002000000010000000000008000000000000000000000000000000000000000000000000000400000000000000000000200000000000000000000000000000000000000000000000100000000002000000000000000000000000000000000000000000000000000060000000000000000000000000000000000000000000000000000000000000000000",
      "type": "0x2",
      "transactionHash": "0xe318a8d4a2cb9e75802c7a184e1fe2894027e84b746027ecf5caa38051eac2fe",
      "transactionIndex": "0x0",
      "blockHash": "0x9c5dbe9170576761d5597a5ca6e0684cdd0c5a2b03129e5ed67c9a327088f6e4",
      "blockNumber": "0x1c208e1",
      "gasUsed": "0x2621c",
      "effectiveGasPrice": "0x77359407",
      "from": "0x200f3eed8995472ad495ef8c1cfe74cc2eff7414",
      "to": "0xd032112434295a340e5de9fe04d28b932e8b57da",
      "contractAddress": null
    }
  ],
  "libraries": [],
  "pending": [],
  "returns": {},
  "timestamp": 1777016703369,
  "chain": 16602,
  "commit": "6d24f88"
}